:040800000CEF04F005
:10080800FACF23F1FBCF24F1E9CF25F1DCED08F095
:1008180000EE00F010EE08F014EC04F01BEF04F00A
:10082800EE6AE550E150FCE1E250FAE11200000EF8
:10083800926E9368000E946E000E956E000E966E82
:100848000101006F0F0EC16E0101005112EC08F09A
:100858009450C009946E9D989D9AAC94B886AC98B3
:10086800AF68220EAC6E900EAB6EF0869382F18A62
:10087800F0889384F188F28E000E026E000E036EEB
:10088800000E046E000E056E000E066E000E076E5A
:1008980000D081A001D001D0FCD716D0050E0101EF
:1008A8000101046F000E0101056F010E0024010112
:1008B8000101026F000E01200101036F8EEC07F0A9
:1008C80002C100F003C101F081B001D001D0E6D728
:1008D800010E0024006E000E0120016E0101006F60
:1008E800000E01010101036F010100510101016FB7
:1008F800000E01010101026F010101515BEC08F0DA
:100908000101006F000E01010101076F0101005193
:100918000101016F010E01010101066F0101015181
:10092800010100C002F1010101C003F10101000E43
:10093800010103BFFF0E0101046F0101056FCAEC3D
:1009480006F000D081B201D001D004D081A401D03A
:1009580001D0F8D70101006F000E01010101036FFA
:10096800010100510101016F010E01010101026F36
:10097800010101515BEC08F00101006F000E01015B
:100988000101076F010100510101016F030E01010F
:100998000101066F01010151010104C002F10101C9
:1009A80005C003F10101000E010103BFFF0E0101A3
:1009B800046F0101056FCAEC06F00101006F000E1B
:1009C80001010101076F010100510101016F030ECF
:1009D80001010101066F01010151010106C002F187
:1009E800010107C003F10101000E010103BFFF0E61
:1009F8000101046F0101056FCAEC06F0140E010134
:100A08000101066F000E0101076F9DEC08F000D090
:100A1800ACA201D001D0FCD70450300FAD6E00D08D
:100A2800ACA201D001D0FCD70D0EAD6E00D0ACA2A7
:100A380001D001D0FCD70A0EAD6E2AD70CEF04F016
:100A48000101226F000E010101011D6F01012251F8
:100A5800010101011BAF01D001D018D00101010132
:100A68001B1F01011A1F0101191F0101186D000E3A
:100A78000101192301011A2301011B230101226F1E
:100A8800010E010101011D6F010122510101010146
:100A980017AF01D001D014D001010101171F0101C6
:100AA800161F0101151F0101146D000E0101152308
:100AB8000101162301011723010E010101011D1B6C
:100AC800000E010101011E6F000E01011F6F000ED3
:100AD8000101206F000E0101216F01011B51181146
:100AE80019111A11D8B401D001D06BD00101226FAD
:100AF800010E010101011C6F010122510DD00101FC
:100B0800D890010118370101193701011A3701017D
:100B18001B37010101011C2B010101011BAF01D091
:100B280001D0EDD70101D89001011E3701011F370F
:100B3800010120370101213701010101185101018B
:100B48000101145D0101010119510101010115594A
:100B5800010101011A5101010101165901010101A7
:100B68001B51010101011759D8A001D001D01BD098
:100B780001010101185101010101145F0101010185
:100B8800195101010101155B010101011A5101010E
:100B98000101165B010101011B5101010101175BF4
:100BA800010101011E810101D89001011B330101DE
:100BB8001A330101193301011833010101011C2FF6
:100BC800B1D7010101011D51D8B401D001D010D015
:100BD80001010101211F0101201F01011F1F010146
:100BE8001E6D000E01011F23010120230101212395
:100BF8001EC114F11FC115F120C116F121C117F151
:100C080000D0120001011E6F000E010101011C6FCE
:100C180001011E510101010117AF01D001D018D007
:100C280001010101171F0101161F0101151F010113
:100C3800146D000E0101152301011623010117236C
:100C480001011E6F010E010101011C6F01011E51FE
:100C5800010101011BAF01D001D010D00101010138
:100C68001B1F01011A1F0101191F0101186D000E38
:100C78000101192301011A2301011B2301011B5141
:100C8800181119111A11D8B401D001D05ED0010180
:100C98001E6F010E010101011D6F01011E510DD0D2
:100CA8000101D890010118370101193701011A37DC
:100CB80001011B37010101011D2B010101011BAFBE
:100CC80001D001D0EDD70101010118510101010145
:100CD800145D0101010119510101010115590101B9
:100CE80001011A51010101011659010101011B51AC
:100CF800010101011759D8A001D001D018D0010174
:100D08000101185101010101145F0101010119518B
:100D180001010101155B010101011A5101010101E4
:100D2800165B010101011B5101010101175B010162
:100D3800D89001011B3301011A3301011933010154
:100D48001833010101011D2FBED7010101011C51FA
:100D5800D8B401D001D010D001010101171F010141
:100D6800161F0101151F0101146D000E0101152345
:100D7800010116230101172314C114F115C115F13E
:100D880016C116F117C117F100D0120001010101B7
:100D980005AF01D001D01BD00101136F2D0E010149
:100DA8000101146F0101135141EC09F00101010126
:100DB800051F0101041F0101031F0101026D000E3F
:100DC8000101032301010423010105230AD00101C4
:100DD800136F200E01010101146F0101135141EC41
:100DE80009F00101136F000E01010101086F0101F3
:100DF8001351090E01010101086501D001D001D08C
:100E08004ED00101090E010101010825E96EEA6AC7
:100E18000101010EEA220A0E01010101186F000EFC
:100E28000101196F000E01011A6F000E01011B6FFD
:100E380002C114F103C115F104C116F105C117F17E
:100E480006EC06F0010101011451EF6E0A0E0101D2
:100E58000101186F000E0101196F000E01011A6FD0
:100E6800000E01011B6F02C114F103C115F104C189
:100E780016F105C117F124EC05F014C102F115C1F2
:100E880003F116C104F117C105F101010101082B95
:100E9800090E01010101086501D001D0B2D706C1D0
:100EA80008F101010101086701D001D001D031D05A
:100EB80001010101075101010101086301D001D0BD
:100EC8000AD00101136F2E0E01010101146F0101F7
:100ED800135141EC09F008C113F1FF0E010113276A
:100EE8000101090E01011325E96EEA6A0101010EEB
:100EF800EA22EF50300F01010101146F41EC09F0B3
:100F080001010101080701010101086701D001D0B1
:100F1800CFD712000101086F000E01010101066F11
:100F2800010108510101010103AF01D001D00FD027
:100F380001010101026D0101031FD8B0032B01015A
:100F4800086F010E01010101066F0101085101013D
:100F5800010105AF01D001D007D001010101046DE5
:100F68000101051FD8B0052B01010101055104112C
:100F7800D8B401D001D03ED00101086F010E0101A3
:100F88000101076F0101085109D00101D890010141
:100F980004370101053701010101072B0101010196
:100FA80005AF01D001D0F1D70101010104510101C0
:100FB8000101025D0101010105510101010103590E
:100FC800D8A001D001D00CD00101010104510101C8
:100FD8000101025F01010101055101010101035BEA
:100FE8000101D89001010533010104330101010118
:100FF800072FDAD7010101010651D8B401D001D079
:1010080007D001010101026D0101031FD8B0032BB4
:1010180002C102F103C103F100D01200010E956E66
:1010280083920101026F330E01010101046F010176
:1010380002511AEC09F00101026F320E010101019F
:10104800046F010102511AEC09F00101026F280E28
:1010580001010101046F010102511AEC09F00101BB
:10106800026F0E0E01010101046F010102511AEC19
:1010780009F00101026F010E01010101046F010174
:1010880002511AEC09F00101026F060E010101017B
:10109800046F010102511AEC09F0640E010101010B
:1010A800066F000E0101076F9DEC08F012000101A8
:1010B8000101026701D001D009D0010101010351EA
:1010C800800F01010101046F1AEC09F0010101010F
:1010D8000205D8A401D001D009D0010101010351B2
:1010E800C00F01010101046F1AEC09F001010101AF
:1010F8000251020AD8A401D001D009D0010101018E
:101108000351940F01010101046F1AEC09F0010168
:1011180001010251030AD8A401D001D009D001016C
:1011280001010351D40F01010101046F1AEC09F008
:101138001200000E01010101086F000E0101096F84
:1011480026D0000E010101010A6F000E01010B6F8C
:10115800690E010101010A5D020E01010B59D8A0B7
:1011680001D001D001D00FD0010101010A4B0B2B96
:10117800690E010101010A5D020E01010B59D8A097
:1011880001D001D0F1D701010101084B092B010160
:101198000101065101010101085D01010101075129
:1011A800010101010959D8A001D001D0CAD7120004
:1011B8000600EACF26F1E1CF27F1E2CF28F1D9CF17
:1011C80029F1DACF2AF1F3CF2BF1F4CF2CF1F6CFB6
:1011D8002DF1F7CF2EF1F8CF2FF1F0A001D001D0EB
:1011E80003D0044A052AF090F0A201D001D003D020
:1011F800064A072AF0922FC1F8FF2EC1F7FF2DC12A
:10120800F6FF2CC1F4FF2BC1F3FF2AC1DAFF29C175
:10121800D9FF28C1E2FF27C1E1FF26C1EAFF25C1A6
:10122800E9FF24C1FBFF23C1FAFF1100839404C125
:1012380005F1F00E0101051783500F0B010105118F
:10124800836E7AEC09F004C105F10101053BF00E4B
:101258000517F00E0101051783500F0B0101051149
:10126800836E7AEC09F00A0E01010101066F000E87
:101278000101076F9DEC08F01200838414C115F179
:10128800F00E0101151783500F0B01011511836E24
:101298007AEC09F014C115F10101153BF00E151790
:1012A800F00E0101151783500F0B01011511836E04
:1012B8007AEC09F012000101176F000E010101011B
:1012C800166F01011751130E01010101166501D0B6
:1012D80001D001D00AD001010101162B130E010122
:1012E8000101166501D001D0F6D7120083965FEC94
:1012F80009F083865FEC09F083965FEC09F0120031
:00000001FF
